S01700004763634170706C69636174696F6E382E7372656354
S11300000C9434000C9446000C9446000C94460066
S11300100C9446000C9446000C9446000C94460044
S11300200C9446000C9446000C9446000C94460034
S11300300C9446000C9446000C9446000C94460024
S11300400C9446000C9446000C9446000C94460014
S11300500C9446000C9446000C9446000C94460004
S11300600C9446000C94460011241FBECFEFD8E038
S1130070DEBFCDBF21E0A0E0B1E001C01D92A03100
S1130080B207E1F70E94F2000C94EA020C9400001B
S113009080E480937C0087E880937A000895ECE7FD
S11300A0F0E09081907F8F70892B8083EAE7F0E005
S11300B080818064808380917A0086FDFCCF80916A
S11300C0780090917900089584B1866084B982EAB9
S11300D0809380008AE1809381008FE39CE9909370
S11300E0870080938600089520E030E04AEF53E4CF
S11300F00E947D0220E030E84BEB54E40E9454015E
S11301000E94C0017093890060938800089520E0E4
S113011030E04AEF53E40E947D0220E030E84BEBEC
S113012054E40E9454010E94C00170938B006093B8
S11301308A0008958F929F92AF92BF92CF92DF92DE
S1130140EF92FF920F931F93CF93DF93E7010E94E7
S113015053016B017C01288139814A815B810E94B2
S11301605401688379838A839B83F80120813181D8
S113017042815381C701B6010E9453014B015C01C6
S1130180F801C082D182E282F382688179818A8116
S11301909B812DEC3CEC4CEC5DE30E947D029B01C9
S11301A0AC01C701B6010E9454016B017C012DEC26
S11301B03CEC4CE45DE3C501B4010E947D029B016B
S11301C0AC01C701B6010E945401DF91CF911F9188
S11301D00F91FF90EF90DF90CF90BF90AF909F90E2
S11301E08F9008950E9448000E946400789480E0F3
S11301F00E944F006C0181E00E944F007C0182E06C
S11302000E944F00EC0183E00E944F008C01B60174
S11302106E0D7F1DCE01800F911F681B790B80E04E
S113022090E00E94EF014B015C01CC0DDD1D0E0D31
S11302301F1DC01BD10BBE0180E090E00E94EF01A6
S11302402B013C010F2EF4E0EF2EF1E0FF2EF02DF8
S11302500CE011E0A501940160E070E0CB010E9484
S11302609A004B015C010F2EF0E0EF2EF1E0FF2E1F
S1130270F02D08E011E0A301920160E070E0CB01F1
S11302800E949A006B017C01C501B4010E947400B4
S1130290C701B6010E94870087EA91E60197F1F74A
S11302A000C00000A4CF5058BB27AA270E946B01AE
S11302B00C9443020E94350238F00E943C0220F064
S11302C039F49F3F19F426F40C9432020EF4E095AD
S11302D0E7FB0C942C02E92F0E94540258F3BA173E
S11302E0620773078407950720F079F4A6F50C9448
S11302F076020EF4E0950B2EBA2FA02D0B01B90156
S113030090010C01CA01A0011124FF27591B99F087
S1130310593F50F4503E68F11A16F040A22F232F93
S1130320342F4427585FF3CF469537952795A795E3
S1130330F0405395C9F77EF41F16BA0B620B730B8A
S1130340840BBAF09150A1F0FF0FBB1F661F771FFB
S1130350881FC2F70EC0BA0F621F731F841F48F4B0
S1130360879577956795B795F7959E3F08F0B0CF39
S11303709395880F08F09927EE0F97958795089520
S11303800E945C0288F09F5798F0B92F9927B751C3
S1130390B0F0E1F0660F771F881F991F1AF0BA9525
S11303A0C9F714C0B13091F00E947602B1E008950B
S11303B00C947602672F782F8827B85F39F0B93FFD
S11303C0CCF3869577956795B395D9F73EF49095D8
S11303D08095709561957F4F8F4F9F4F0895E89456
S11303E009C097FB3EF490958095709561957F4F79
S11303F08F4F9F4F9923A9F0F92F96E9BB27939527
S1130400F695879577956795B795F111F8CFFAF436
S1130410BB0F11F460FF1BC06F5F7F4F8F4F9F4F67
S113042016C0882311F096E911C0772321F09EE8C5
S1130430872F762F05C0662371F096E8862F70E02B
S113044060E02AF09A95660F771F881FDAF7880F05
S11304509695879597F9089597F99F6780E870E0D6
S113046060E008959FEF80EC089500240A94161626
S1130470170618060906089500240A94121613068E
S1130480140605060895092E0394000C11F488231C
S113049052F0BB0F40F4BF2B11F460FF04C06F5F38
S11304A07F4F8F4F9F4F089557FD9058440F551F0E
S11304B059F05F3F71F04795880F97FB991F61F0E2
S11304C09F3F79F087950895121613061406551F59
S11304D0F2CF4695F1DF08C0161617061806991FC5
S11304E0F1CF86957105610508940895E894BB27BA
S11304F066277727CB0197F908950E9490020C9400
S113050043020E94350238F00E943C0220F09523F9
S113051011F00C942C020C94320211240C947702E6
S11305200E94540270F3959FC1F3950F50E0551F3C
S1130530629FF001729FBB27F00DB11D639FAA2734
S1130540F00DB11DAA1F649F6627B00DA11D661F83
S1130550829F2227B00DA11D621F739FB00DA11DA4
S1130560621F839FA00D611D221F749F3327A00D5E
S1130570611D231F849F600D211D822F762F6A2FFA
S113058011249F5750409AF0F1F088234AF0EE0F5F
S1130590FF1FBB1F661F771F881F91505040A9F78C
S11305A09E3F510580F00C942C020C9477025F3F1F
S11305B0E4F3983ED4F3869577956795B795F795C8
S11305C0E7959F5FC1F7FE2B880F911D9695879540
S10B05D097F90895F894FFCF98
S9030000FC
